:020000040800F2
:100000000050002089000208DD000208DD0002081F
:1000100000000000000000000000000000000000E0
:10002000000000000000000000000000DD000208E9
:100030000000000000000000DD000208DD000208F2
:10004000DD000208DD000208DD000208DD00020814
:10005000DD0002088540000895400008A540000822
:10006000DD000208DD000208DD000208DD000208F4
:10007000DD000208DD000208DD000208DD000208E4
:10008000DD000208DD000208DD00020800000000BB
:10009000DD000208DD000208DD000208DD000208C4
:1000A000DD000208DD000208B13A0008DD000208A8
:1000B000DD000208DD00020800000000DD0002088B
:1000C000054B0648033310B51B1A062B03D9044B06
:1000D000002B00D0984710BDE0080020E008002069
:1000E000000000000648074910B5091A8910CB0F17
:1000F0005918491003D0044B002B00D0984710BD6D
:10010000E0080020E00800200000000010B5074CC7
:100110002378002B09D1FFF7D3FF054B002B02D02A
:10012000044800E000BF0123237010BDE008002058
:100130000000000014060208094B10B5002B03D084
:100140000849094800E000BF08480368002B02D1B5
:10015000FFF7C8FF10BD064B002BF9D09847F7E713
:1001600000000000E408002014060208DC0800205B
:1001700000000000144B002B00D1124B9D46402282
:1001800092029A1A924600218B460F461148124A53
:10019000121A17F081FC0D4B002B00D098470C4B26
:1001A000002B00D098470020002104000D000B48D0
:1001B00017F0D4FB17F00AFC200029001FF004FF01
:1001C00017F0D4FB00000800000000000000000051
:1001D00000000000E0080020D825002099790108DF
:1001E00010B5024804F03FFF10BDC04630110208B0
:1001F00010B5024804F037FF10BDC0464B1102088D
:1002000010B50B4C200000F0E9FB01232376637E40
:10021000002B08D1074B2000596800F013FC200088
:1002200000F05DFB10BD044800F0ACFEFAE7C046EC
:10023000FC08002048220020651102088021074B9D
:1002400009051A6D0A40064900D001220A70802271
:10025000196D12040A431A657047C0460010024027
:10026000C01F002010B5074C200000F08BFE064890
:1002700000F088FE200000F085FE044800F00CF835
:10028000FEE7C046482D0208891102081027000029
:100290007047C0460020704707B5019001980DF0E7
:1002A000BBFF07BD80230A4A5B05916B10B50B436A
:1002B00093630AF011FA0AF0B5FA0823054A1168A7
:1002C0000B4313600AF09AFA00F062F810BDC046C2
:1002D0000010024000200240042300B599B00A93A8
:1002E000002314930133FF330AA80C9308F0CAFAD1
:1002F000002801D00DF0FEFD20230193802301A8EA
:100300005B02029308F024FF002801D00DF0F2FDFB
:100310008023074ADB02116D02200B431365002284
:10032000110009F009FB022009F036FB19B000BDED
:1003300000100240024A0349136D0B4013657047D9
:1003400000100240FFFFFBFF10B500F005FB10BDE1
:10035000013800B5072807D81CF0F2FA080806048F
:1003600006060604062000BD0720FCE70520FAE784
:1003700010B50EF0D5F8044B5B68984703F07CFC91
:100380000022024B1A7010BD5C06020818090020FA
:10039000F0B50127022604258BB01422002105A800
:1003A00017F07AFB8022214CA020E36A05A93B4389
:1003B000E362E36AC0053B400193019BE36A334378
:1003C000E362E36A33400293029BE36A2B43E362F6
:1003D000E36A2B400393039BE36A1343E362E36AFC
:1003E00013400493049B03230693114B059309F0D8
:1003F0008DFB104B05A91048059309F087FB05A953
:100400000E4809F083FB05A90D4809F07FFB802207
:10041000E36ABB43E362E36AB343E362E36AAB4389
:10042000E362E36A9343E3620BB0F0BD0010024065
:10043000FF9F0000FFFF0000000400500008005074
:10044000001C005000B595B01422002101A817F03F
:1004500023FB3822002106A817F01EFB0223069377
:10046000109380231B0301221293802309921B0403
:100470000F3206A80A92139308F004FA002801D05C
:100480000DF038FD8023114A5B05916B0B4393639C
:100490000F4B10491A681140802212010A431A605A
:1004A00010211A0053680B40FCD10F220121019248
:1004B00001A80C3A029203930493059308F0E4FC1C
:1004C000002801D00DF016FD15B000BD001002404F
:1004D00000700040FFE7FFFF044B1868044B1B68E7
:1004E0005840044B1B6858407047C0465000F81FE6
:1004F0005400F81F6400F81F1149124A0B6810B528
:1005000014681B191B0EC37114680B681B191B0C94
:10051000837114680B681B191B0A437112680B68FE
:100520009B180371084B1A68120EC2701A68120CDD
:1005300082701A68120A42701B68037010BDC046B0
:100540005000F81F6400F81F5400F81F124810B53F
:100550004378002B1ED111490122416080210906F8
:100560008160072143640362C361C3600361436226
:100570008362036343638023C26342614270033238
:100580008261074A0164516B9B000B435363043043
:1005900007F0AEFC10BDC046180900200024014041
:1005A0000010024013B5084C2378002B0BD1FFF745
:1005B000CDFF064B1B68019398470DF031FF0DF0FE
:1005C0004BFE0123237013BD180900205C060208AE
:1005D0000022014B5A70704718090020F7B5070038
:1005E00000201E4E7378834236D008231C494A6887
:1005F0001A42FCD080231B4D9B006A6B341D1343B1
:100600006B63002120000AF057F9174B69460093ED
:10061000164B2000019308F019F8802369465B010E
:1006200020000193009708F011F8200007F08AFDE0
:1006300001212000494207F0CFFD200007F042FFD2
:100640000222736880B299680A439A6003221A6092
:100650006B6B074A13406B63FEBDC0461809002050
:100660000070004000100240FFFF07000110000072
:10067000FFFDFFFF70B51248FFF7B0FF0025010036
:10068000A84206D00F4B18880F4B58431CF076F940
:1006900005000E48FFF7A2FF0D4B68430A491C886E
:1006A0001CF06CF9031B642058430A4B00021988A4
:1006B000091B1CF0EDF9F0235B01C01880B270BD7E
:1006C000000002447800F81FB80B00000000044846
:1006D0007A00F81F7E00F81F10B50F48FFF77EFF65
:1006E00001000020814215D00C4B0D4C188860434E
:1006F0001CF044F90200FE20A2420BD80949002058
:100700008A4207D9FE305043074B6421C0181CF0C1
:1007100035F9C0B210BDC046000002447800F81F91
:10072000B80B0000530B0000A8C2F4FF012310B562
:100730000B700400FFF7D0FF2070002010BD30B513
:1007400087B0EFF3108472B6A0251422002101A80F
:1007500017F0A2F90323ED0501AA802128000293D6
:1007600003F07EFB01AA4021280003F079FB01AAD7
:1007700008210D4803F074FB802101AA090228001A
:1007800003F06EFB094B5B68984703F075FA04238E
:10079000074A11680B43136084F310880121080095
:1007A00009F0CAFF07B030BD000400505C06020823
:1007B0000070004013B5EFF3108472B60122134BA2
:1007C00019680A431A60042219681142FCD0802279
:1007D000196852040A431A6080229204196811426F
:1007E000FCD00322D9680A430C21DA60DA680A4097
:1007F0000C2AFBD10DF0E4FD054B1B6801939847D3
:1008000003F02AFA84F3108813BDC046001002409A
:100810005C06020810B50121002009F075FF10BD2B
:10082000EFF3108372B6034A11680843106083F334
:10083000108870477C090020EFF3108372B60349DB
:100840000A6882430A6083F3108870477C0900209D
:10085000014B18687047C0467C090020074B10B553
:100860001B68002B06D1FFF76AFFFFF7A3FF0DF00F
:1008700097FB10BDFFF7CEFFFBE7C0467C090020C9
:1008800070B504000DF0CEFB0123637205002668ED
:100890000DF0DCFB2818864203D20DF0D7FB2D1893
:1008A000256020680DF0FEFB70BD064A10B5136888
:1008B000002B01D00021597243611060FFF7E0FF67
:1008C00010BDC046800900200023C1600360436062
:1008D000037243720361436170470161704770B5F1
:1008E0000400EFF3108572B6002810D0184E32685D
:1008F0001300002B0ED16168637221600121217207
:10090000002A0BD10DF09BFC2000FFF7CEFF85F3F2
:10091000108870BD9C42FAD05B69EAE70DF096FB47
:100920002368C018336820601A689042ECD35A6973
:100930005969002902D15C616161E8E71168884268
:1009400002D913005269F3E75C616261DFE7C046D8
:1009500080090020007A704770B50DF0C1FC0400DA
:100960000DF06DFC001B1C4C2268002A15D01300F2
:1009700000255B69002B06D151691372D368216091
:10098000002B08D1FEE71968884202D2091A1960C3
:10099000EFE71D60EDE7106998472368002B06D14B
:1009A0002068002811D170BD18699047F5E71D68CF
:1009B0000DF04CFB8542F3D223685A692260002275
:1009C0001A72DA68002AEFD1FEE7437A002BEAD1E7
:1009D000FFF756FFE7E7C0468009002070B5EFF348
:1009E000108572B6124C2368002B01D0002802D16A
:1009F00085F3108870BD00220272834210D1597AAB
:100A00005E69914209D05A72964204D03000266045
:100A1000FFF736FFECE70DF02CFB2660E8E713004C
:100A20005A69002AE4D09042F9D142695A61DFE75D
:100A30008009002010B50400FFF7D0FF2000FFF769
:100A40004EFF10BD70B5050008000DF0EDFA040072
:100A50002800FFF7C3FF0DF0E5FA844200D204003E
:100A60002C606C6070BD10B50DF0FCFA0DF0E4FA6E
:100A700010BD70B505000DF0F5FA040028000DF06A
:100A8000D3FA201A0DF0D8FA70BD10B50DF064FC41
:100A900010BDC046F7B52E4C00252600019528361E
:100AA0006B469B88E9B2F3800022B388306813F06C
:100AB000CDFB071E49D1019AB3883036D3189BB2BB
:100AC000244A0193AB000135D050102DE8D1012309
:100AD0000500A26A11780B431370A36A1B78DB0729
:100AE00028D5E368002B25D022681B49022001F09D
:100AF00067F8002D0AD0A36A184A1B7818495B07CB
:100B00009B0F9B009A58022001F05AF8114BA80045
:100B10001818E3689847012803D12268114901F0A9
:100B20004FF811490220226801F04AF80F490220CB
:100B300001F046F801353034102DCED100220C4B97
:100B4000DA8100F045FE3800FEBD0127FBE7C04614
:100B500004000020C4210020D9110208E007002071
:100B6000F31102080D12020828120208A517020844
:100B700048220020F7B5314BDA89002A4BD1304C9E
:100B8000304E25003270AB6A1B78DB0715D5AB6998
:100B9000002B12D02A682C49032001F011F86B4673
:100BA000DF1D002330783B70284B3900C018AB693B
:100BB000984733783A789B183370254B30359D42EF
:100BC000E1D1A36A1B78DB070BD5E369002B08D0C2
:100BD00020490320226800F0F3FF31001B48E3693D
:100BE00098473034AC42ECD1C023154C9B00E5183B
:100BF000A36A1B78DB0709D5236A002B06D022687D
:100C00001549032000F0DCFF236A98473034A542E1
:100C1000EED10020FEBD013A92B2DA81002A08D15D
:100C2000BFF34F8F0D4A0E4BDA60BFF34F8FC046B4
:100C3000FDE70C49032000F0C3FFD5E74822002060
:100C4000040000208409002040120208C41F002074
:100C5000040300205C1202089B1202080400FA053B
:100C600000ED00E073120208F7B500243027194B9D
:100C70001B59002B04D10434402CF8D10020FEBDB8
:100C80001B6800251A78144B7A439B185B6A002B6B
:100C9000F1D0104EAB00A61901933368AA009B58FF
:100CA000002BE8D05A78002A10D01B780A4A7B43E0
:100CB00003209A58094900F083FF3368019A985835
:100CC000054A03787B43D3185B6A98470135EDB238
:100CD000DFE7C046C421002004000020B51202084E
:100CE000C02370B501250D4C9B00E618A36A1B7844
:100CF000DB070CD52369002B09D0226808490320A3
:100D000000F05EFF23699847012800D100253034A8
:100D1000B442EBD10120684070BDC0460400002001
:100D2000CF120208C02370B50A4C9B00E518A36AD5
:100D30001B78DB0709D56369002B06D022680649BA
:100D4000032000F03DFF636998473034AC42EED198
:100D5000002070BD04000020E812020830B5012414
:100D60000B780025234201D0157825400378A34352
:100D70002B4303700D780023AD0702D513785B0871
:100D80002340022504785B00AC43234303700C78B6
:100D90000023640703D513780124EB402340042586
:100DA00004789B00AC43234303700C780023240792
:100DB00003D501241378DB08234008250478DB00E1
:100DC000AC43234303700C780023E40603D50124CD
:100DD00013781B092340102504781B01AC432343DF
:100DE00003700C780023A40603D5012413785B0953
:100DF0002340202504785B01AC43234303700C7827
:100E00000023640603D5012413789B092340402561
:100E100004789B01AC43234303700C7800237F2CA0
:100E200001D91378DB097F250478DB012C402343AB
:100E3000012403704B780021234201D051782140D6
:100E40004378A3430B43437030BD8023064ADB0144
:100E5000516BA0200B43802110B589005363C0055E
:100E6000042202F019FF10BD0010024007B5012056
:100E70000B4AD16A0143D162D36A80210340A0208A
:100E800001938900C005019B03F064F880230548A5
:100E9000DB03026891680B43936009F07FFE07BD96
:100EA0000010024088090020074810B50200010028
:100EB0007032137871310133DBB213701378012271
:100EC000C91805F060FE10BD88090020054810B55E
:100ED0000300010070331B787131C918012205F03D
:100EE00052FE10BD8809002010B5FFF7EFFF10BDBE
:100EF00010B51B2008F0C4FD0548012203000100C5
:100F000070331B787131C91805F03DFE10BDC04625
:100F1000880900200200303A0300092A02D80F2075
:100F2000184070470200413A052A02D8373BD8B230
:100F3000F7E71A00613AFF20052AF2D8573BF6E797
:100F400070B50E4C0A0071340100200017F014FF38
:100F50009626C5B2651976000948AC4207D16A30B9
:100F60000378202B02D11B2008F074FD70BD2100F6
:100F70003300012206F0BEFC0134EDE7880A0020B0
:100F8000880900200FB407B504A901C90191FFF732
:100F9000D7FF03B008BC04B01847054B703318786E
:100FA000044B71331B78C01A431E9841C0B270477E
:100FB00088090020880B0020094A10B513007033FF
:100FC0001C78084B0020713319788C4206D01978B0
:100FD0007132505C1A780132D2B21A7010BDC0461C
:100FE00088090020880B00200223F7B501271A008A
:100FF0003821002549423A430A4301AE464C358028
:101000003270464A032022609622920162600C22CE
:101010004349A560E5602561A5616261CA6C8243B0
:1010200013431B22CB643F4B3F4940480A711A1DB2
:10103000D5671A003E490832D1671A003D49883207
:10104000116019003C4A8C310A6019009031086027
:10105000190094310A601A00384998321160A020B2
:101060008021374A5C67DF679C331A60C90004221D
:10107000C00502F011FE8021A02004228900C005D5
:1010800002F00AFE2800284902F048FD051E00D0A3
:10109000FEE72300210070331B7871313A00C91834
:1010A000200005F070FD274B274C1B6820001D70A9
:1010B000FFF768FF25492648FFF764FF2000FFF788
:1010C00061FF2448FFF75EFF2000FFF75BFF200071
:1010D000FFF758FF2048FFF755FF2000FFF752FFAA
:1010E0001E48FFF74FFF2000FFF74CFF1C48FFF79B
:1010F00049FF2000FFF746FF2000FFF743FF3200C3
:101100001849280001F05EF82000FFF73BFF164861
:10111000FFF738FFF7BDC0468809002000380140BE
:1011200000100240880B0020FC0B0020A90E0008D4
:101130004B0E00086D0E0008F10E0008E90E0008C5
:10114000CD0E000804030020482D0208A91E020845
:101150007E150208A3150208CD150208051602081F
:10116000301602080C0300205B16020810B501F0CF
:10117000FFF8032806D81BF0E3FB0E020A0C074811
:10118000FFF700FF0648FFF7FDFE002010BD0548F1
:10119000F6E70548F4E70120F8E7C0465F160208C5
:1011A000482D02088A160208C0160208F0B5C24887
:1011B00089B0FFF7E7FEC14B5B681B78002B15D0A9
:1011C00000230193BE4B029300231D0000931427BC
:1011D0006F43029BB94CDF193E68002E00D1B0E28C
:1011E000236861689C46009C01220BE0B548FFF72C
:1011F000C9FE09B0F0BD63461B5D834200D00022EA
:101200000134A4B2009BE31A9BB2F318187803933D
:10121000002806D1002A15D10022019B934209D053
:1012200020E00B78A342E6D8002AF5D0019B002BE2
:101230001CD101220123388906A90880C0B2984335
:1012400008700DE00A78A242F0D963461A5D002AC0
:10125000ECD0203A53425341DAB2019B002BE9D043
:10126000002A03D10135ADB2009C1BE0039B1E7820
:10127000002E00D062E263461B5D002B1CD00121D2
:101280003A7A0A4210D03A00350006A9083208001E
:10129000FFF764FD019B01340133DBB20193FB686E
:1012A000A4B20293009492E7202B00D046E2FB7A8E
:1012B000013B072B00D941E23A00834B0134013353
:1012C000DC7705AC2000083206A9FFF747FD2000B7
:1012D00000F064FF0028C5D03B7ADB0700D5CBE0E7
:1012E000FB68002B00D1C7E06378DB0702D52378C9
:1012F0009B0617D4F87A0138072813D86F4E1BF0D5
:1013000033FB5B00080049007900C800F7000101C9
:1013100040016D4B31680133DB7F4022C9186B48B7
:1013200017F038FB01213800FFF720FF002800D11B
:1013300088E139686648FFF725FE5F4D2800FFF712
:1013400021FE0023634C05993800237001F028F832
:101350002378002B00D067E15F48FFF713FE2800D9
:10136000FFF710FEBB7A002B00D16BE15B483968B8
:10137000FFF708FEB87A0138072800D9D5E1534CA9
:101380001BF0F2FA8C019201A101C20195019501B5
:10139000A30181014C4B0A225C1CE07F336807A942
:1013A000181817F0EFFB494B1870E27F33689B1851
:1013B000079A9A42B6D15FE0434B0A225C1CE07F59
:1013C000336807A9181817F0B3FC404B020A5A708B
:1013D000020C9A70020EE17FDA70326818705218AF
:1013E0000799914248D0002802D001221A7099E74B
:1013F000187097E70123354A5B421370537002332C
:1014000093703368160000932F4B354D0133DB7F0B
:1014100002930299009B8C46634403932B68180047
:10142000019317F03BFA039904000200019817F0AA
:1014300067FA00281CD12B7A33706B7A7370029B89
:10144000E418009B1B5D002B00D16BE7202B0FD114
:10145000009B0134181907AA224917F081F904AB3F
:101460001B7BB370032B00D85CE70123B37059E7F3
:101470001D4B3035AB42D1D139681C48FFF782FD96
:101480000D48FFF77FFD05AAF968380000F09AFEC5
:10149000D8E00D4B0A225C1CE07F336807A91818BE
:1014A00017F070FB094B020A18705A70020C000EFC
:1014B0009A70D87079E7C046482D020804030020CE
:1014C0000C0300205B160208080C002005220020F7
:1014D000F6160208042200200C1702087C170208E6
:1014E000340000209917020804030020BC170208EA
:1014F000A34B0A225C1CE07F336807A9181817F079
:1015000017FCCFE79E4B0A225C1CE07F336807A9DB
:10151000181817F037FB9B4D030A6B70030CAB7068
:10152000E47F3368079928701A19000EE870914219
:10153000A2D01A5D202A17D118190278202A19D0B2
:10154000002C99D00A2207A917F01CFB030A6B7123
:10155000030CAB71336828711C19079B000EE871EE
:10156000A34200D0DEE687E762B2002A84DB0134C2
:10157000E4B2DEE762B2002A00DA7DE70134E4B2C9
:10158000DAE77F4B35680133DB7FED18280017F071
:1015900085F9C4B23F2C00D940242B002020291902
:1015A000994206D1002C36D000230093631E01938C
:1015B00021E01A7816008643413E052E03D9303AC1
:1015C000092A00D958E70133EAE7A85DFFF7A2FC32
:1015D000AE1902907078FFF79DFC029B0F2B1AD872
:1015E0000F2818D81B01009A1843664B9854130013
:1015F0000133DBB20093009B5E00019BF6B29E427A
:10160000E3DB08D1E85CFFF785FC0F2803D85D4BCE
:10161000009A0001985400225A4B64080133DC7789
:10162000584B0233DA777DE65748FFF7ABFC217859
:10163000012922D0022924D05448FFF7A3FC280016
:10164000FFF7A0FC5248FFF79DFC4D4B03219C1C6B
:10165000E07F01301BF002FB8223E1775943080051
:10166000474A4C4C223281301018606000205318D9
:101670002360813318708854BBE54748FFF782FC2C
:10168000DDE74648FAE70026631CDA7FA31CDB7F10
:101690001B0213439E4230D34148EFE72378414871
:1016A000002BEBD14048E9E721004048C5E76378CB
:1016B00021781B020B43A17809040B43E17809064A
:1016C00019433B48B9E72178FBE7637922791B028C
:1016D0001343A279217812041343E27935481206A4
:1016E0001A4363781B020B43A17809040B43E1788A
:1016F00009061943FFF746FCA1E7A15D2E48013614
:10170000FFF740FCB6B2BFE7637822781B021343B1
:1017100030240122294920005043461836899E4230
:1017200005D141582148FFF72DFC2548A6E7013295
:10173000102AF0D12348FFF725FCF6E70135ADB2BA
:10174000B0E52148FFF71EFC2048FFF71BFC1048BE
:10175000FFF718FC0A4D0321AF1CF87F223501303A
:101760001BF07CFA8223F977594308006A1881300C
:10177000226028188132606016704E5539E5C046E7
:10178000080C002005220020211702086917020812
:101790005B160208040300203A1702084D170208DE
:1017A000A21702088A1702088F17020809180208F0
:1017B00099170208951702089C17020804000020D8
:1017C000A6170208E4170208D1170208482D0208DC
:1017D00010B50648FFF7D6FB0548FFF7D3FB054BCE
:1017E00005481968FFF7CEFB10BDC046482D02081A
:1017F0005B1602080403002009180208F0B56848C7
:1018000089B0FFF7BFFB674B5B6801931B78002B28
:1018100012D00026B4463700634B009314247C4357
:10182000009B1C192168002900D1B5E05D4B65467D
:101830001B68029301230CE05C48FFF7A3FB09B08F
:10184000F0BD029A0398525D824200D00023013518
:10185000ADB26246AA1A92B204928A181078039026
:10186000002805D1002B15D100239E4209D021E08C
:1018700001980078A842E4D8002BF5D0002E1CD1A6
:101880000123218906A801800120C9B2814306A84D
:1018900001700DE0019B1B78AB42EFD9029B5B5DB1
:1018A000002BEBD0203B58425841C3B2002EE8D069
:1018B000002B02D10137BFB2B0E7137805932300A4
:1018C00008330393059B002B15D1029B5B5D002B16
:1018D00048D00122237A13420DD006A9039A0800AA
:1018E0000135FFF73BFAABB29C46E3680136F6B22E
:1018F0000093059F92E706A90800039AFFF72EFAC6
:101900002B48FFF73FFB2648FFF73CFB14257D43A0
:10191000009B5D192A68002A3ED00023012606E0BC
:101920002168C85CD15C884200D00026013304984D
:1019300099B28842F4D82A0006A9083207A8FFF70E
:101940000DFA002E0BD007A800F028FC002806D0C6
:1019500018482968FFF716FB1148FFF713FB0137FA
:10196000BFB2D3E706A800F019FC0028C3D006A92F
:101970000800039AFFF7F2F9626821680E48FFF742
:1019800001FB0748FFF7FEFA237ADB0704D506AA16
:10199000E168200000F016FCFFF71AFF4FE7C04691
:1019A000482D0208040300200C0300205B160208E7
:1019B0000C18020808180208F317020870B50A4D3F
:1019C00000242800FFF7DEFA084B5B681B7802331F
:1019D000A34203DA2800FFF7D5FA70BD04480134AA
:1019E000FFF7D0FAE4B2EFE7492D02080403002024
:1019F00076180208F8B58225FFF7CFFA002800D143
:101A0000F8BDFFF7D9FA202203009343413BDBB234
:101A10000400192B0AD90300203BDBB2192B00D993
:101A20008BE0504ADA40D30700D488E04E4E73680A
:101A30001B78802B0CD94D48FFF7A4FA4C48FFF7D0
:101A4000A1FA4C48FFF79EFA31684B48FFF79AFA23
:101A500006CE13784948CC5413780133DBB21370A7
:101A60000022CA542100FFF78DFAC5E70A2C01D0E5
:101A70000D2C02D1FFF79AFBBEE7092C02D1FFF72C
:101A8000BDFEB9E72B2C2ED13D4F00243800FFF7C7
:101A900079FA354E73681B78A3421BD83800FFF7DC
:101AA00071FA384C0321A71CF87F01301BF0D6F8DF
:101AB000002915D0F977A31CDB7F22346B43E21891
:101AC0008133E418326074602A48FFF75BFA3168AA
:101AD0002948C8E72C480134FFF754FAE4B2D8E7A4
:101AE0000223FB77E7E72D2C00D085E7244F002465
:101AF0003800FFF747FA1C4E73681B78A34214D8CE
:101B00003800FFF73FFA1F4B991CCA7F013AD2B247
:101B1000022A10D8CA779A1CD27F22336A439918B6
:101B200081329B1831607360CEE717480134FFF7AC
:101B300029FAE4B2DFE70022ECE7082801D07F2C85
:101B400094D1094A51680B78002B00D154E7013B2E
:101B5000DBB20B70002112680C48D154FFF712FA67
:101B60004AE7C0460110FF030403002021180208C1
:101B7000482D02085B1602080918020830250208E1
:101B8000492D0208080C002076180208A217020846
:101B90000FB407B504A901C90191FFF7D1F9FFF707
:101BA00017FE03B008BC04B018470FB407B504A96A
:101BB00001C90191FFF7C4F903B008BC04B018478C
:101BC0000EB403B5084B1B7B834208D3FFF7F6FE28
:101BD00004A903980191FFF7B3F9FFF7F9FD02B0EB
:101BE00008BC03B01847C046482200200CB413B507
:101BF0000A4B04005B7B8B420CD3FFF7DFFE210016
:101C00000748FFF7BFF905A904980191FFF798F974
:101C1000FFF7DEFD13BC08BC02B0184748220020C5
:101C200067180208F8B530244C430B4D1F002B19E0
:101C30009B6A16001B785B079B0F83420BDBFFF749
:101C4000BDFE61590548FFF79DF939003000FFF7E7
:101C500077F9FFF7BDFDF8BD0400002071180208F8
:101C60000FB404B070470FB404B0704770B50024CF
:101C70008AB0374902200194FFF7A2FFFA20354DC0
:101C8000C000FEF709FB0BF0EFFD029401A901343F
:101C900002A8039504940CF091F8002805D02E4971
:101CA0002000FFF78DFF0AB070BD012229005242CB
:101CB00002200BF069FE002806D028490120FFF71A
:101CC0007FFF0BF0EFFDEEE78025029001A92D05C7
:101CD00002A8039504940CF071F821490028EDD175
:101CE00001222900524202200BF04EFE0028E4D1CE
:101CF0008023022505AE059533820BF0DDFD300013
:101D00000BF064FF002803D00BF0F4FD1549D5E774
:101D10000BF056FE0BF0EEFD0BF0C4FD280012494F
:101D2000FFF74EFF28001149FFF74AFF104928002E
:101D3000FFF746FFFA20C000FEF7AEFABFF34F8F61
:101D40000C4A0D4BDA60BFF34F8FC046FDE7C0462B
:101D50007818020800800108AF180208CD180208A0
:101D6000E41802080219020829190208A517020836
:101D7000431902080400FA0500ED00E070B50E48B2
:101D8000FFF700F90D4D2800FFF7FCF80C4C0D4E45
:101D90006368226830000021FFF7F4F82800FFF79D
:101DA000F1F830002369E2680121FFF7EBF8280021
:101DB000FFF7E8F870BDC04661190208482D020817
:101DC000980600207619020870B54D4C2000FFF7E8
:101DD000D9F84C494C48FFF7D5F82000FFF7D2F866
:101DE0004A48FFF7CFF82000FFF7CCF82000FFF7B4
:101DF000C9F84748FFF7C6F82000FFF7C3F8454881
:101E0000FFF7C0F82000FFF7BDF84348FFF7BAF826
:101E10002000FFF7B7F82000FFF7B4F83F48FFF7BE
:101E2000B1F82000FFF7AEF83D4D2800FFF7AAF803
:101E30002000FFF7A7F82000FFF7A4F83948FFF7C4
:101E4000A1F82000FFF79EF83748FFF79BF8200025
:101E5000FFF798F83548FFF795F82000FFF792F85C
:101E60003348FFF78FF82000FFF78CF82000FFF7CA
:101E700089F82000FFF786F82E48FFF783F8200046
:101E8000FFF780F82C48FFF77DF82000FFF77AF87D
:101E90002000FFF777F82948FFF774F82000FFF7D4
:101EA00071F82800FFF76EF82000FFF76BF82000AC
:101EB000FFF768F82000FFF765F82148FFF762F8A0
:101EC0002000FFF75FF81F48FFF75CF82000FFF7DE
:101ED00059F82000FFF756F81B48FFF753F8200089
:101EE000FFF750F82800FFF74DF82000FFF74AF8F9
:101EF0002000FFF747F82000FFF744F870BDC04608
:101F0000482D0208A91E020883190208BF150208FD
:101F10008C190208C9190208061A02084C1A02088C
:101F2000841A0208991A0208A71A0208BC1A0208A1
:101F3000E71A0208071B0208361B02086A1B020880
:101F40008B1B0208AD1B0208E91B020810B5054CEB
:101F50002000FEF7D1FA0822631CDA77002302344E
:101F6000E37710BD05220020F0B50125364C85B081
:101F70002000FFF707F83548FFF704F82000FFF7C7
:101F800001F8334E03AFE9B201230022380012F00A
:101F90005DF9002855D13B784E225B079B0F013B32
:101FA000DBB2022B01D82B4AD25CB36A4E211B78DC
:101FB0005B079B0F013BDBB2022B01D82649C95CB2
:101FC00091423AD02548FEF7DDFF0122B36A197825
:101FD0003B784B40134205D02148114200D12148A3
:101FE000FEF7D0FF3B782048DB0700D41F48FEF700
:101FF000C9FF1F4872683168FEF7C4FF2000013531
:10200000ADB2FEF7BFFF3036102DBBD12000FEF77A
:10201000B9FF1848FEF7B6FF2000FEF7B3FF1649D8
:102020001648CB6800938B684A680968FEF7AAFFD8
:102030002000FEF7A7FF05B0F0BD1148FEF7A2FF94
:10204000C3E71048DBE7C046482D0208221C0208FF
:10205000340000203006020830060208351C020851
:10206000451C02084B1C0208472F0208BB2B020824
:10207000511C0208821C0208E0070020BA1C02085A
:102080003F1C0208581C020870B5002430252B00A4
:1020900063430C4AE0B29B189A8D002112F086F936
:1020A000002804D001200849FFF78AFD70BD0134E3
:1020B000102CECD105490220FFF782FD04490220D3
:1020C000F2E7C04604000020EA1C02080E1D0208C8
:1020D000331D020810B50B4C2000FEF753FF0A49D0
:1020E0000A48FEF74FFF2000FEF74CFF2000FEF7E6
:1020F00049FFBFF34F8F064A064BDA60BFF34F8F9D
:10210000C046FDE7482D0208A91E0208511D02081D
:102110000400FA0500ED00E0F7B5184E01217378D0
:1021200032781B0213433022154C15004D432D19F4
:102130002F899F4207D001311029F6D10122114B7E
:102140001AE01870F7BDAB6AB5781A780123032638
:10215000D2B218409A430243354006209D40824344
:1021600001AC2A432270C9B20022200012F00AF901
:10217000044B0028E5D002221A70E3E70522002074
:10218000040000200422002010B50120FFF7C4FF46
:1021900010BD10B50020FFF7BFFF10BD0622037869
:1021A000002013420DD002321A400130002A08D11B
:1021B000302110000B4204D03F329343581E83411C
:1021C000D8B27047F0B50C0085B016004C4D002811
:1021D00000D191E0037ADB0708D441684948FEF753
:1021E000D1FE2800FEF7CEFE05B0F0BD01684648DE
:1021F000FEF7C8FE2800FEF7C5FE012523680193FF
:10220000002BF1D0337800202B4201D0207A2840D7
:1022100003A90A78AA43024302200A70002203425B
:1022200002D0227A52082A40022708785200B84386
:1022300002430A700022590702D5227AFA402A4046
:10224000042703A908789200B84302430A700022C9
:10225000180702D5227AD2082A4008270878D20027
:10226000B84302430A700022D90602D5227A120925
:102270002A40102703A801781201B9430A430270CB
:102280000022990602D5227A52092A402027017895
:102290005201B9430A4302700022590602D5227A3C
:1022A00092092A40402701789201B9430A430270FB
:1022B00000225BB2934201DA227AD2097F210378AD
:1022C000D2010B401A437378027000222B4201D0D6
:1022D000627A2A404378AB4313434370FFF75EFFB3
:1022E000002807D0094862680199FEF74BFE0448B0
:1022F000FEF748FE143481E70548FEF743FE79E710
:10230000482D02088C1D02089C1D0208511C020861
:10231000C21D0208352373B50026104C5B4201AD87
:1023200020002E802B70FEF72DFE0D490D48FEF784
:1023300029FE2000FEF726FE0B48FEF723FE2000B4
:10234000FEF720FE2000FEF71DFE2A0030000749A0
:10235000FFF738FF2000FEF715FE73BD482D020879
:10236000A91E0208D51D0208A91502080C030020A9
:1023700070B5040008300D00FFF710FF03000120C6
:10238000002B06D0237A002D04D000209B0700D418
:10239000033070BD5B07DB0F584258414000F8E73F
:1023A000F7B50022444F01AB198005003A70CA0509
:1023B00000D47EE01E78F30622D573060DD5C168E1
:1023C000CB78002B09D08A789BB209783B4811F072
:1023D000D9FF002801D002233B7076B2002E0EDA1E
:1023E000E968CA78002A0AD03023088889785843D7
:1023F000334B1B18986A4018304915F00BFBF7BD9A
:10240000B306FCD573060ED5C168CB78002B0AD075
:102410002A4C8A789BB20978200011F017FF002817
:1024200020D002233B7076B2002EE8DAE968CA7841
:10243000002AE4D030230888204C5843204B1B1836
:102440008878996A0918200015F0E4FAAB7A022B13
:1024500024D0082B25D0012BD1D12278002A1BD0E3
:102460002370CCE7AB7A022B0BD0082B0CD0012BBE
:10247000D9D12378002B02D001232370D3E7002386
:10248000FBE73F342070CEE7EB68DA78631CDA773D
:1024900000230234E377C6E72270B0E73F3400231D
:1024A000DEE7EB68DA78631CDA7700230234E3773F
:1024B000A5E7C3689847A2E7042200200522002070
:1024C0000400002030B501240B780025234201D000
:1024D000157825400378A3432B4303700D78002320
:1024E000AD0702D513785B082340022504785B0012
:1024F000AC43234303700C780023640703D513789F
:102500000124EB402340042504789B00AC43234383
:1025100003700C780023240703D501241378DB080B
:10252000234008250478DB00AC43234303700C7878
:102530000023E40603D5012413781B09234010254A
:1025400004781B01AC43234303700C780023A406DA
:1025500003D5012413785B092340202504785B010F
:10256000AC43234303700C780023640603D5012495
:1025700013789B092340402504789B01AC432343F7
:1025800003700C7800237F2C01D91378DB097F2599
:102590000478DB012C402343012403704B78002195
:1025A000234201D0517821404378A3430B43437029
:1025B00030BD0B6818700B6801330B601368013372
:1025C00013607047F0B5070085B003A801800021B3
:1025D0003800019302920A9C0B9DFFF7C9FE431E2F
:1025E000DBB2012B06D82A0021000520FFF7E1FF0E
:1025F00005B0F0BD002803D02A0021000620F5E731
:10260000FB7A013BDBB2062B01D8234AD056019B53
:10261000834203DA2A0021000120E7E71F4E019AD6
:102620000299300015F0F6F938000399FFF7B8FE6B
:102630001B4B1878002802D02A002100D6E7BA7A6E
:102640002168531EDBB20191062B1FD81249CF56C9
:10265000022A03D1300016F021F907000023019A65
:1026600013709F4205DD23683A00581C310015F0B5
:10267000D1F923680137DB1923602F60B8E7731C99
:10268000D87FB31CDF7F3F020743E7E7082AF6D075
:10269000019B07001870ECE73306020805220020B2
:1026A00004220020F0B589B015001E000F9A0E9B81
:1026B00005911978137804909FB2490702D557788D
:1026C0003F021F43049B414A1C7814210023944677
:1026D0000800584360440268002A05D132002900EE
:1026E0000320FFF766FF61E09C4212D1049B07AA1A
:1026F00001330393038901211380DB050CD4037A92
:10270000DB0756D4059B0196013B0095039A079978
:102710004AE001339BB2DBE713780B42EFD0302461
:102720002342ECD08B43137014210023C2680C00A9
:102730005C43141920680028D0D0208AB84223D1E5
:10274000237ADB07CAD52200049B07A908320800B8
:102750005F78FFF7B7FEE268002314245C43141986
:1027600021680029BAD09F4211D1220007A908325E
:102770000800FFF7A7FE237ADB071ED5039BE2685C
:102780005F7801330393E7E701339BB2CFE701336F
:102790009BB2E2E72000039A049B05990132D31A09
:1027A000CB1A079901960095FFF70CFF012009B09D
:1027B000F0BD32002900072093E707A8FFF7EEFCE1
:1027C0000028E7D13200290005208AE70C03002009
:1027D00070B5074C0D0016000A000100200015F02E
:1027E00019F90120256466644834207070BDC04624
:1027F000B00D0020F0B51C0007001500002389B0C3
:102800000591059A934202DB012009B0F0BD042135
:102810005A1C04920E9AFE181278981C0A4200D094
:10282000D81C002307932B683178039301332B6066
:1028300023682A0001332360731C01930E9B381810
:10284000009307ABFFF72EFF079A23689B182360BE
:10285000039B1A703378049A9B18D2E72B4BF0B580
:102860001A000400002048320D00117887B0814220
:1028700015D0196C1070012911D91A001F004B32A4
:1028800004920222493727602A605A780292042A69
:1028900007D008302A002100FFF78BFE012007B087
:1028A000F0BD8A1E03213C7803921A788C431109EB
:1028B00009018C460F219607B60F34430C40614640
:1028C0000C436946097A3C707970002E09D0012EBC
:1028D000E5D10093981C04AA2B000399FFF78AFF07
:1028E000DDE7029900930A401000421E90419A1CB5
:1028F0001818019205AB04AA03300399FFF7D2FE22
:102900002B68059A9B182B60C9E7C046B00D0020C4
:1029100013B5084C230048331B78002B09D06946B7
:1029200001A8FFF79BFF012803D1636C694601985A
:10293000984713BDB00D00200EB403B503AB04CB14
:10294000052100200193FFF76DF902B008BC03B028
:1029500018470020704710B5040040680378022B28
:102960000BD0032B0CD0012B13D142780D4905203D
:10297000FFF7E2FF0020607010BD42780A49F6E7D9
:1029800063780A49C01800230138037063685A1C31
:10299000EDE7617801300139C9B211F021FC044939
:1029A0000200E4E778230208822302088B2302084E
:1029B000922302080EB403B503AB04CB0621022018
:1029C0000193FFF72FF902B008BC03B018470020AD
:1029D000704710B5436804001A780B490620FFF7CA
:1029E000E9FF0A4B9B6D1B78DB0709D56368084933
:1029F00006201A78FFF7DEFF611C606800F080F99E
:102A00000020607010BDC0469A2302080400002018
:102A1000AF2302080EB403B5054A04AB072100201A
:102A20000193FFF7FFF802B008BC03B01847C04697
:102A3000922302080020704710B5097811F0D0FBEE
:102A4000034902000720FFF7E5FF002010BDC04644
:102A500092230208F42370B5164CFF3362689A4241
:102A600001D801336360144BA2689A4201D8013344
:102A7000A360237B032B01D90123237362680F49D1
:102A80000220FFF79DF8A2680D490220FFF798F891
:102A9000237B0C4D9B005A590B490220FFF790F8FD
:102AA000637B0A499B005A590220FFF789F80020EE
:102AB00070BDC04648220020E7030000C923020879
:102AC000F0230208E0070020122402083224020842
:102AD00070470122014B1A707047C0463C0E00201F
:102AE0000EB403B503AB04CB012102200193FFF721
:102AF00099F802B008BC03B0184710B50CF02AF8DA
:102B0000012802D10549FFF7EBFF054B7A3318780E
:102B1000022801D80BF0B6FE10BDC04654240208AE
:102B20006022002007B5084B08491A5C0120FFF716
:102B3000D7FF00216B466A4619710223684653711C
:102B40000BF05EFE07BDC046732402085B2402083A
:102B500007B507490120FFF7C3FF00216B466A460E
:102B600019710223684653710BF04AFE07BDC04637
:102B7000772402080EB403B5012103AB04CB08008F
:102B80000193FFF74FF802B008BC03B018470EB42A
:102B900003B503AB04CB012103200193FFF742F8F7
:102BA00002B008BC03B0184710B502490120FFF776
:102BB000EEFF10BDAB24020800211F4A1F4B70B569
:102BC00053601970052313701D4B51705A60996042
:102BD000043303600BF0DEFF012400281FD11949E4
:102BE0002000FFF77DFF184A18492000FFF7CFFFAC
:102BF000174D2B007A331A78022A12D8154B164932
:102C00009A5C2000FFF76CFF7B352A78134C0F2A63
:102C10000CD86270201D21000BF0E8FE002420007B
:102C200070BD0F492000FFF7A5FFEDE70D4901201A
:102C3000FFF7A0FFEEE7C04658220020DC2200206C
:102C40003C0E0020EE24020800102544092502084D
:102C50006022002073240208232502086C0600204D
:102C6000332502084C25020837B513786A460091CF
:102C7000137150710BF0B6FD0400012809D00BF060
:102C80001CFD01240BF066FF1149A0421BD020005F
:102C90003EBD104D10490C352800FDF715FEC8212A
:102CA0002800FDF7CFFE2800FDF719FE0021684639
:102CB0000BF0A6FD0949051E05D120000849FFF7C4
:102CC0000FFF2C00E3E72000FFF754FFDFE7C046CB
:102CD000682502083C0E0020D12A0008952502082C
:102CE0007325020810B50A0001000D20FFF7BCFF94
:102CF00010BD10B50A0001000220FFF7B5FF10BD9E
:102D000010B50A0001000320FFF7AEFF10BD10B59B
:102D1000064C2378012B03D1002323700DF05AF8C1
:102D20002078013843425841C0B210BD3C0E00200B
:102D3000704710B504000179006811F051FA637909
:102D4000020021490120FFF7CBFE63790C2B04D14F
:102D500021792068FDF79CFA10BD0D2B05D1217952
:102D60001A4A2068FFF734FDF6E70A3B012BF3D837
:102D7000174A5378002BEFD1217998B2814210D8AD
:102D80006179431C9BB20A290FD100215068017060
:102D90005370E1E72068591CC35C506843540B0032
:102DA000EAE73F2BF6D11800EAE70B29F0D100241F
:102DB0005168402B04D00230CC5483B20321E5E7A4
:102DC0003F310C70FAE7C046B5250208E52C000833
:102DD000582200200EB403B5054A04AB042102209A
:102DE0000193FEF71FFF02B008BC03B01847C046AE
:102DF000CB25020801200C4A10B5D16A86B00143E8
:102E0000D162D36A002403400093009BA0200323D7
:102E100001A902930493C0050D330394019306F0B6
:102E200075FE200006B010BD0010024070B5050010
:102E300010480E00FDF7D2FB01000120002918D038
:102E40000D4B18880D4B584319F098FD04000C48A1
:102E5000FDF7C4FB0B49604319F090FD022333706A
:102E6000030A687082B22B7004200749FFF7B2FF93
:102E7000002070BD000002447800F81FB80B00006D
:102E800010000010FF0F0000CB2502080EB403B5A0
:102E9000022104AB044A08000193FEF7C3FE02B00E
:102EA00008BC03B01847C046DB2502080EB403B5C2
:102EB00003AB04CB022101200193FEF7B3FE02B065
:102EC00008BC03B0184707B501F01AF909490028F2
:102ED0000BD1E82101AA537880200B40E6395370CA
:102EE00001F030FA002804D003490220FFF7DEFF8A
:102EF00001200EBDF72502081226020810B501F0C8
:102F00005DF910BD73B56B469D1D06002A000121B9
:102F1000802001F0EBF9041E06D00E490220FFF7D5
:102F2000C5FF0124200076BD28881AF0F3FE1CF0AE
:102F3000DFFC0022084B1BF077FE1CF02BFD1CF081
:102F4000D7FC0022054B1BF06FFE19F08BFF308081
:102F5000E8E7C046302602080000F03E00408F40FF
:102F600073B56B469D1D06002A000021802001F0EC
:102F7000BDF9041E06D010490220FFF797FF012477
:102F8000200076BD28881AF0C5FE1CF0B1FC002296
:102F90000A4B1BF049FE0022094B1BF045FE0022A4
:102FA000084B1CF0C1F80022074B1BF03DFE1CF043
:102FB000F1FB3080E4E7C046462602080000F03E00
:102FC00000A06440000044400000244013B50124E8
:102FD000202101AA204043015078884318435070B3
:102FE0001E39802001F0AEF9002804D002200249E9
:102FF000FFF75CFF200016BD5F26020837B501AD64
:1030000004002A000221802001F070F9002805D078
:1030100002200549FFF74AFF01203EBD6B789B0661
:10302000DB0F2370F9E7C04672260208F7B56A463F
:103030000023961D050001AC30000F002380338073
:10304000FFF760FF012802D101235B42338020009B
:10305000FFF786FF00281DD124880F4BE418A4B287
:103060003088230A2B70030AAB7004236C70E8705D
:103070000A213B7019F082FC084B85B20A21E01846
:1030800019F006FD2B00020005490220FFF7FEFEA5
:103090000020FEBD034CE3E710270000F0D8FFFF3F
:1030A000DB250208FFFF00000EB403B503AB04CB21
:1030B000032102200193FEF7B5FD02B008BC03B066
:1030C000184710B5094B5A78012A01D900225A70C5
:1030D0000C225B7806495A438B18032052585B68D0
:1030E0000449FFF7E1FF002010BDC0461E23002069
:1030F00098060020852602080020704770B5114B05
:1031000011485A780C235A43104B9B181C895D892F
:10311000FDF764FA011E14D00D4B0E481B8858436E
:1031200019F02CFCFE23A04209D80023A84206D3A4
:10313000FE21401B4843611B19F020FCC3B218005C
:1031400070BDF2E71E230020000002449806002014
:103150007800F81FB80B0000012310B50B700400B5
:10316000FFF7CCFF0349020020700320FFF79CFF0C
:10317000002010BD991702080EB403B5054A04AB30
:10318000082102200193FEF74DFD02B008BC03B0F8
:103190001847C046D42602080EB403B503AB04CBCF
:1031A000082101200193FEF73DFD02B008BC03B0E9
:1031B000184737B500F0A4FF174900280AD16B461D
:1031C0009C1D22000123D021EC2001F02BF80028C7
:1031D00006D012490820FFF7DFFF012318003EBD8B
:1031E00023780F49602BF5D16B460124DD1DDC717E
:1031F0002A002300F221EC2001F02EF82300002801
:10320000ECD12522F4212A70EC302A0001F024F8B8
:10321000431E9841C3B2E1E70B2702082E2702089C
:103220004627020810B500F0C9FF10BDF0B5122402
:10323000A3B016ABE4180690179101232200D02109
:10324000EC2000F0EFFF002802D0012023B0F0BDF9
:103250002378602B10D007490820FFF79DFFFF233C
:10326000069A137053709370D370179AFB3B1370C8
:10327000EBE7C04646270208132416ABE41820707B
:1032800001232200F421EC2000F0CCFF0028DCD147
:1032900001232278F4211A432270EC30220000F03E
:1032A000DBFF041ED1D11BAD01001A22280014F04F
:1032B000F3FB1A232A008821EC2000F0B3FF071E3D
:1032C00000D050E26B782E78EA781B021E43AB7870
:1032D000120213431BB212936A792B791202134321
:1032E0001BB21493EB79AA791B021A4315926A7ADE
:1032F0002B7A120213431BB20A93EA7AAB7A1202B8
:1033000013431BB20B936A7B2B7B120213431BB23A
:103310001693EA7BAB7B120213431BB20C936A7CBD
:103320002B7C120213431BB20D93EA7CAB7C12027E
:1033300013431BB207936A7D2B7D120213431BB20A
:103340000E93EA7DAB7D120213431BB20F932A004A
:103350001023E121EC206C7E00F064FF002800D0F7
:1033600013E26A782B781202134303220F211BB257
:1033700005932B79AA561940120111430522AF7803
:103380001391AA561B091201134310930623EB56FF
:1033900008930025132216A952180123F321EC20CB
:1033A00000F040FF002800D04FE7082216ABDB7C7E
:1033B000134202D0013D002DECD11BAD03232A00A6
:1033C000FA21EC2000F02EFF002800D0E2E12B785B
:1033D0006A781B0312011343AA7812991209134346
:1033E000DA087500521B1B0951439B1B5B430A0003
:1033F00014991B1359430B00D517C9176D05890480
:10340000890C6D0DAD18CB189B13ED12ED1805232B
:103410006B4380331900DB17DBB2E04A5B181B12E9
:10342000934200DD1300DE4A934200DA13001BB220
:1034300014931BAE02233200FD21EC2000F0F2FEBB
:1034400000231293984252D1337871781B021943AA
:10345000139B89031B05C91AD24BE818109B4343E1
:10346000C91A8023DB01C918CB175B045B0C5B18FE
:1034700039004143CA175205520D52188021D21209
:1034800009025118089ADB135043C2179205920D96
:10349000121892124A43D1178905890D8A18802182
:1034A000921289035218059951430A00802189011B
:1034B0005118CA179204920C52180F2192135343B9
:1034C000DA175204520CD218D2135243D211544379
:1034D000E2170A40141924111B1BDC43C822E4170D
:1034E00023405205934200DD13001B1312931BACC3
:1034F00003220021200014F0CFFA03232200F72139
:10350000EC2000F08FFE00260590B04200D0EEE0E7
:1035100001212A002378A448139363784942189321
:10352000A378FF271993EB1712184B4110001900CD
:103530000892099319F054FC0A9B10901191D91725
:103540000A98089A099B19F04BFC030D0D031D43C3
:103550000B9B0403D9170B98109A119B19F040FC90
:10356000CB171E003E403200059B801859410B06C8
:10357000020A1A430B12802112196B410020090222
:1035800080185941159A059B19F02AFC0125CC1782
:1035900022002C402300801859414B10CD170A936C
:1035A00082482B4300D19EE00D9B0D98D917109AAD
:1035B000119B19F015FC0C9B06000F000C98D917F5
:1035C000089A099B19F00CFC8C466446C10B6304F5
:1035D0000B434204B6185F41189B199A1B0112094C
:1035E0001343139A169C1203134380225203D31AD7
:1035F000059A5908D807E30092197B41801A99412E
:103600006B4A002319F0ECFB2B000A9A19F0A4FB7B
:1036100006000F00C917C904059BCA0C92197B410B
:103620005D13D904540B0F9B0C432200D9170F983C
:103630002B0019F0D5FB22002B0019F0D1FBCC1781
:10364000E401059BE20980185941CC01420E224356
:103650004B1692197B411D000E9B1400D9173200A6
:103660003B000E9819F0BCFBCE177603059B720B3E
:10367000801859414E03C20CCB14324312196B41CE
:10368000FF20D91708400400059D12196B411C0644
:10369000120A144320001912079BDD171C0F2B017F
:1036A0002343079C220112184B410599D80F121889
:1036B0004B41D9075008084364225910002319F0E0
:1036C0008FFB7F24CD1725402A00059B12184B4104
:1036D0005806384BD2091043984200D91800334B92
:1036E000984200D21800642119F048F90600FA2126
:1036F0001298490019F042F9069B3221187014986B
:1037000019F0C6F9069B503058703221300019F07C
:1037100035F9069A030A93700423D070179A149807
:1037200013701CF06BF80022234B1AF049FE0400C2
:1037300030000D001CF0A4F800221F4B1AF040FED0
:103740000290039112981CF09BF800221B4B1AF078
:1037500037FE2200009001912B0008201849FFF746
:103760000BFD002072E52700089410941394059433
:103770000F940E9407940D940C9416940B940A9441
:10378000159414941294260003E608971097139743
:103790000597FEE5002514954BE6C0463421000050
:1037A00060F0FFFF00D4FEFF000CFEFFC0C62D003E
:1037B000350C0000C0D8A7000000594000408F40E1
:1037C000D42602080EB403B503AB04CB09210220B2
:1037D0000193FEF727FA02B008BC03B018470EB4F5
:1037E00003B503AB04CB092101200193FEF71AFABC
:1037F00002B008BC03B0184737B500F081FC2A4975
:1038000000280AD16B46DC1D220001230F213A203B
:1038100000F008FD002805D024490920FFF7DFFF4C
:1038200001203EBD2278412A05D0412320490920AC
:10383000FFF7D5FFF4E71723220023702021163B62
:103840003A2000F009FD0028EAD1992322002370D4
:103850003221983B3A2000F0FFFC0028E0D1012300
:10386000220033213A3000F0F7FC0028D8D10123A0
:10387000220034213A3000F0EFFC0028D0D1082596
:103880000123220030213A30257000F0E5FC0028A9
:10389000C6D10123220022213A30257000F0DCFC41
:1038A000431E9841C0B2BCE7562702087B27020896
:1038B000A427020800207047F0B5062689B006ACA0
:1038C000320005000F002000002114F0E5F833005D
:1038D000220028213A2000F0A5FC0023E05E1BF026
:1038E0008DFF314B00221AF06BFD1CF053F81BF0DA
:1038F000FFFF049005910423E05E1BF07FFF2A4B3D
:1039000000221AF05DFD1CF045F81BF0F1FF02905B
:1039100003910223E05E1BF071FF0022224B1AF09C
:103920004FFD1CF037F81BF0E3FF049A059B009055
:1039300001911E490920FFF745FF0423E15E1C4A5F
:1039400091420ADD01231B492B700920FFF73AFF42
:10395000012300203B7009B0F0BD174B994203DAF8
:10396000022316492B70F0E70220215E914203DD0D
:10397000032313492B70E8E7994203DA0423114922
:103980002B70E2E70020215E914203DD05230E4902
:103990002B70DAE7994202DA2E700C49D5E7002342
:1039A0000B492B70D1E7C046C0FFCF40C9270208A2
:1039B000F82A0000E927020808D5FFFFF4270208CB
:1039C000012802080E2802081C28020829280208DB
:1039D0003728020813B56B46DC1D22000123312174
:1039E0003A2000F01FFC207816BDC0460EB403B587
:1039F000054A04AB0A2102200193FEF713F902B035
:103A000008BC03B01847C046472802080EB403B5E7
:103A1000054A04AB0A2101200193FEF703F902B025
:103A200008BC03B01847C0465A28020830B587B012
:103A300000F060FD041E07D00D490A20FFF7E6FFE5
:103A40000124200007B030BD01250421039004901B
:103A500001AA08480191029500F002FA220029000B
:103A60001A2005F069FF1A2005F096FFE9E7C04625
:103A70005A280208000400500020704770B5094C15
:103A800006000D000848216818F078FF0123307007
:103A900022682B7005490A20FFF7A8FF002020604C
:103AA00070BDC046600E002080413E0047280208DD
:103AB0000421164B10B5D8689C68154A0C4202D0F8
:103AC0000023137110BD9B685B06F9D41379002B9A
:103AD00002D1D0800133F4E7D38880B21B040343C2
:103AE0001B12D8171B1843400A4883420BDD13688A
:103AF000013302D013680133136000220421064809
:103B000006F048F9DEE70122F9E7C0460038004038
:103B1000600E002030750000000400500123F7B54E
:103B20000E4E8500AF590C000093002F07D1086896
:103B3000A95103F0F7FF0190002802D0AF5100987F
:103B4000FEBD0420E2682056A16805F0F5FE0420C1
:103B5000205605F021FF019B0093F0E7680E00203E
:103B6000034B8000C358181E00D018687047C04629
:103B7000680E0020054B8000C35810B5002B03D001
:103B80009B69002B00D0984710BDC046680E0020EE
:103B9000054B8000C35810B5002B03D0DB69002B08
:103BA00000D0984710BDC046680E0020054B80002D
:103BB000C35810B5002B03D01B6A002B00D09847C8
:103BC00010BDC046680E0020054B8000C35810B5DC
:103BD000002B03D05B6A002B00D0984710BDC04675
:103BE000680E0020054B8000C35810B5002B03D091
:103BF0009B6A002B00D0984710BDC046680E00207D
:103C0000054B8000C35810B5002B03D01B69002B57
:103C100000D0984710BDC046680E0020054B8000BC
:103C2000C35810B5002B03D05B69002B00D0984718
:103C300010BDC046680E002070B5064C85002A599C
:103C40000123002A03D0FFF7E9FF00232B511800BE
:103C500070BDC046680E002010B50024054BE35827
:103C6000002B03D01B69002B00D098470434142C80
:103C7000F4D110BD680E002010B50024054BE358A8
:103C8000002B03D05B69002B00D098470434142C20
:103C9000F4D110BD680E002010B50224064B9C61C3
:103CA000013CDC61023459611C625A6214331A000F
:103CB00000F04BF810BDC046680E00200100FF2345
:103CC00099430B000200581E8341D800074B1A424B
:103CD00001D004231843064B1A4201D00223184393
:103CE000044B1A4201D0012318437047F0F0FFFF44
:103CF000CCCCFFFFAAAAFFFF074A0123904209D0BC
:103D0000064ADB18904205D0A0220023D20590423B
:103D100000D0FF3318007047000400500008005026
:103D2000074A4223904209D0064A0133904205D007
:103D3000A022023BD205904200D0BE33180070474B
:103D400000040050000800507047F0B58BB004002C
:103D50000D000292FFF7D0FF07002000FFF7E0FF01
:103D6000364E0390FF2F07D1354A01213000FDF771
:103D70003DFF01200BB0F0BD324B7F00FB5A2B42C0
:103D80000AD02800FFF79AFF039B00902E4A0121DA
:103D90003000FDF72BFFECE72C4A2D4B94423BD033
:103DA0000CD8A022D205944217D08021DA6A0A43A7
:103DB000DA62DB6A0B400993099B16E0254A9442BC
:103DC00033D0254A9442F0D10821DA6A0A43DA62F4
:103DD000DB6A0B400893089B07E00121DA6A0A437B
:103DE000DA62DB6A0B400593059B029B20001D6095
:103DF000190005F08BFE2800FFF760FF039B009081
:103E0000164A30000221FDF7F1FE0E4B0020DB5B6D
:103E10001D430C4BDD53ADE70221DA6A0A43DA6237
:103E2000DB6A0B400693069BDFE70421DA6A0A434C
:103E3000DA62DB6A0B400793079BD6E79B280208F0
:103E400079280208900E0020A428020800040050DF
:103E50000010024000080050000C0050BD2802086D
:103E6000F0B58BB004000D001700FFF745FF02907E
:103E70002000FFF755FF029B03902E4EFF2B07D12A
:103E800030002D4A0121FDF7B1FE01200BB0F0BD3D
:103E90002A4A2B4B94423BD00CD8A022D205944204
:103EA00017D08021DA6A0A43DA62DB6A0B40099391
:103EB000099B16E0234A944233D0234A9442F0D11E
:103EC0000821DA6A0A43DA62DB6A0B400893089B2E
:103ED00007E00121DA6A0A43DA62DB6A0B400593E4
:103EE000059B39003D60200005F010FE2800FFF71B
:103EF000E5FE039B0090154A03213000FDF776FE96
:103F0000029B134A5B00995A00200D439D52BDE766
:103F10000221DA6A0A43DA62DB6A0B400693069BE7
:103F2000DFE70421DA6A0A43DA62DB6A0B400793AF
:103F3000079BD6E79B280208792802080004005056
:103F40000010024000080050000C0050CA2802086F
:103F5000900E0020F0B585B006000D00FFF7CCFEF6
:103F600007003000FFF7DCFE0390FF2F07D1184851
:103F7000184A0121FDF73AFE012005B0F0BD164CAC
:103F80007F003B5B2B4209D12800FFF797FE039B84
:103F90000090124A03210E48FDF728FE2800FFF783
:103FA0008DFE039B00900E4A02210948FDF71EFE7C
:103FB000E35B2100AB43E353A560032300253000FE
:103FC0000831E3602561656105F0A0FD2800D4E7B4
:103FD0009B28020879280208900E0020D8280208A1
:103FE000EF280208F8B5080017001E000D00FFF7C3
:103FF00065FE124C8200A418E26903001048002AF2
:1040000005D0104A0121FDF7F1FD0120F8BD0E4A4F
:104010000221FDF7EBFD002E0DD0E6612800FCF734
:1040200097F904000022390005F086FC200005F015
:10403000B3FC0020EAE7054BE361EFE7900E0020B8
:104040009B280208FE28020819290208493D000899
:1040500010B505F09FFE10BD10B505F095FE431E8E
:104060009841C0B210BD10B5FFF728FE8300044888
:10407000C018C369002B01D00020984710BDC0466E
:10408000900E002010B5012005F0A3FE022005F0DF
:10409000A0FE10BD10B5042005F09BFE082005F021
:1040A00098FE10BD10B5102005F093FE202005F0FD
:1040B00090FE402005F08DFE802005F08AFE8020D5
:1040C000400005F086FE8020800005F082FE802002
:1040D000C00005F07EFE8020000105F07AFE802001
:1040E000400105F076FE8020800105F072FE802000
:1040F000C00105F06EFE8020000205F06AFE10BDD2
:1041000070B5274A86B0137800200133DBB21370F4
:10411000012B42D8234D280008F004FF061E35D19C
:10412000214B224C6B603323AB60323BEB60204B66
:1041300028622B600223E26A01A91A43E262E26A62
:1041400004931A400092009AC02292000192122217
:10415000DB18039017480292059305F0D7FC8023E3
:10416000A26B9B031A43A263A26A31001343A362AA
:10417000A36A114A17201340A362320005F0DCFB4A
:10418000172005F009FC280006F091FF280008F030
:10419000C9FE2038431E9841C0B206B070BDC0466B
:1041A000EC0E002024230020563EA11000100240F7
:1041B0000054004000040050FFFFDFFF10B5084A24
:1041C0001378012B02D9013B137004E0002B04D1BA
:1041D000044806F0C4FF002010BD0023F4E7C046E9
:1041E000EC0E00202423002070B50B4B0B4A1C78EA
:1041F00003210B48FDF7FAFC2500002D02D1002C0D
:1042000005D170BD013DFFF7D9FFEDB2F5E7013CE7
:10421000FFF776FFE4B2F2E7EC0E00203229020845
:10422000422902081FB514008AB281B2A020C00141
:104230000290019300940123064807F073FD0024C7
:10424000A04204D00134A04201D1FFF7CDFF2000ED
:1042500004B010BD242300201FB514008AB281B21F
:10426000A020C0010290019300940123064807F0AA
:104270009FFC0024A04204D00134A04201D1FFF7EA
:10428000B3FF200004B010BD242300201300A0229F
:1042900013B5D20180B200920A000100064806F070
:1042A00078FF0024A04204D00134A04201D1FFF7DE
:1042B0009BFF200016BDC046242300201300A0222F
:1042C00013B5D20180B200920A000100064806F040
:1042D000F9FF0024A04204D00134A04201D1FFF72D
:1042E00083FF200016BDC04624230020F0B587B010
:1042F0000292A0270F22124E84B26A44FF0111706D
:10430000012300972100300006F043FF002802D06F
:10431000012007B0F0BD322005ADFBF7BDFF0097CF
:1043200002232A002100300006F0CCFF0028EFD144
:104330002A786B7812021343029A1380E9E7C04689
:104340002423002013B5138801AA1C0A53700223EA
:104350001470FFF781FF431E9841C0B216BDF0B53F
:1043600087B004927F22A02711400390703A02A8E0
:104370001218013B1170DCB2FF01FF2C02D10120A9
:1043800007B0F0BD6B460F229E890B4D02A9521853
:10439000009701233100280006F0FBFE002808D119
:1043A00000970123049A3100280006F08BFF0028B3
:1043B000E6D0013CE4B2E0E72423002007B5130077
:1043C0006A46073213700123FFF746FF431E9841E8
:1043D000C0B20EBDF0B587B004930CAB1C787F2340
:1043E000A02719400392703B02AA9B18013C02903F
:1043F0001970E4B2FF01FF2C02D1012007B0F0BD1B
:104400006B460F221E890C4D02A9521800970123FA
:104410003100280006F0BDFE002809D16B46039A42
:104420001B8A31000097280006F04CFF0028E5D0D9
:10443000013CE4B2DFE7C04624230020F8B50500C4
:104440000E0017001C00002C01D10120F8BD7F21B7
:1044500001233A0031402800FFF7FEFE0028F5D086
:10446000013CE4B2EFE737B50D0001AC0323657002
:10447000E270150A6A46090A19400532A5702170D2
:10448000FFF7EAFE431E9841C0B23EBDF0B50224DC
:1044900087B08B0503929B0F05AA02901370517091
:1044A0006B461F89A023124EDB0105AD00932A0045
:1044B00002233900300006F06CFE002812D1A02340
:1044C000DB0100932A0002233900300006F0FAFED7
:1044D000002807D12A786B7812021343039A1380BD
:1044E00007B0F0BD013CE4B2FF2CD9D10120F7E7C1
:1044F0002423002030B52B4A89B0137800200133E3
:10450000DBB21370012B4AD8274C200009F0C3F806
:1045100000283DD1254B264D2360C0239B006360BE
:104520000323E360FA23DB0163610823A0602061B9
:10453000A361EA6A063B1A43EA62EA6A03A91A40DF
:104540000292029AB0220590120206900790194832
:104550000392049305F0DAFA8023AA6BDB011A4375
:10456000AA63AA6A20001343AB62AB6A124A1340E3
:10457000AB6208F015FDFA2369469B000122063163
:10458000200008F0F4FD4023226851680B4353607B
:10459000200009F080F80138431E9841C0B209B0EC
:1045A00030BDC046ED0E00207023002000380040D2
:1045B0000010024000040050FFBFFFFFF0B587B0BD
:1045C0006B46A02602240291D873F6010F22114FE8
:1045D000009601236A44C821380006F0DAFD00285D
:1045E00011D105AD009602232A00C821380006F03B
:1045F00069FE002807D12A786B7812021343029AC9
:10460000138007B0F0BD013CE4B2FF2CDED10120E5
:10461000F7E7C046242300200EB403B503AB04CB58
:104620000C2102200193FDF7FDFA02B008BC03B093
:1046300018470EB403B503AB04CB0C210120019342
:10464000FDF7F0FA02B008BC03B0184710B5FFF749
:1046500057FD431E9841C0B210BD0020704773B58E
:104660006B469E1C04000D0008203100FFF7A6FFDA
:1046700000283BD1328827490C30FFF7CDFF69462F
:104680001820FFF79BFF002835D16B4622491A8876
:104690000C30FFF7C1FF6A46204B1821138012220D
:1046A00001AB5A7022329A706A46197005320223A1
:1046B000C820FFF7D1FD002827D169461820FFF751
:1046C0007DFF00281CD16B4615491A880C30FFF776
:1046D000A3FF6B461A881349130A237002236270E2
:1046E0000C202B70FFF798FF002076BD0E490C20A0
:1046F000FFF79FFFC3E70D490C20FFF79AFFCAE7BA
:104700000B490C20FFF795FFE3E70A490C20FFF760
:1047100090FFD2E74A2902087229020834120000E9
:104720008F290208B42902085C2902087F2902089F
:10473000A0290208C82902080EB403B503AB04CBB4
:104740000D2102200193FDF76DFA02B008BC03B001
:1047500018470EB403B503AB04CB0D21032001931E
:10476000FDF760FA02B008BC03B0184770B5FFF758
:10477000C7FC0124051E0BD1010030225C20FFF78D
:1047800072FE0400012805D136490D20FFF7E1FF34
:10479000200070BD0F2201215C20FFF764FED222B1
:1047A0000221D2005C20FFF75EFE2F4A03215C202D
:1047B000FFF759FE2D4A04215C20FFF754FE2A0022
:1047C00005215C20FFF74FFE2A0006215C20FFF741
:1047D0004AFE2A0007215C20FFF745FE244A80217B
:1047E0005C20FFF740FE00281AD1224A81215C306C
:1047F000FFF739FE002813D11F4A88215C20FFF7FC
:1048000032FE002806D11B4A89215C20FFF72BFECF
:10481000002807D019490D20FFF79BFF0124B7E7B7
:104820001749F8E7174A90215C20FFF71CFE002883
:1048300006D1104A91215C20FFF715FE002801D017
:104840001149E8E7114A98215C20FFF70CFE002887
:1048500006D10F4A99215C20FFF705FE041E97D070
:104860000C49D8E7DC290208640600000F29000083
:10487000F6FF0000FFFF00006FFF0000FA290208AA
:10488000422A0208FFF60000122A0208FF2F000049
:10489000F4FF00002A2A020810B5FFF78FFC10BDB4
:1048A000F0B585B06B460A249E1D02AD32000B2187
:1048B0005C20FFF7EBFD6C442A000C215C20FFF725
:1048C000E5FD03AF22000D215C20FFF7DFFD3A007C
:1048D0000E215C20FFF7DAFD0E236B441A0017212E
:1048E0005C20FFF7D3FD6B465749DA890D20FFF7AF
:1048F00030FF328855490D20FFF72BFF2A88544995
:104900000D20FFF726FF228852490D20FFF721FFD7
:104910003A8851490D20FFF71CFF30881AF06EFFCE
:104920004E4A4F4B1AF080F900224E4B19F038FADC
:1049300002000B0000204C4919F042FD4B4A4C4B41
:104940001AF0F2FB02000B000020474919F038FD75
:104950001BF020F81AF0CCFF02000B000D20454997
:10496000FFF7EAFE28881AF049FF3C4A3C4B1AF050
:104970005BF900223B4B19F013FA02000B000020F8
:10498000394919F01DFD394A394B1AF0CDFB0200A7
:104990000B000020344919F013FD1AF0FBFF1AF048
:1049A000A7FF02000B000D203349FFF7C5FE20884A
:1049B0001AF024FF294A2A4B1AF036F90022294B13
:1049C00019F0EEF902000B000020274919F0F8FC5D
:1049D000264A274B1AF0A8FB02000B0000202249B0
:1049E00019F0EEFC1AF0D6FF1AF082FF02000B005D
:1049F0000D202249FFF7A0FE38881AF0FFFE174A63
:104A0000174B1AF011F90022164B19F0C9F90200E0
:104A10000B000020144919F0D3FC144A144B1AF06F
:104A200083FB02000B0000200F4919F0C9FC1AF0AB
:104A3000B1FF1AF05DFF02000B000D201049FFF7D7
:104A40007BFE002005B0F0BD512902085A2A020859
:104A5000732A02088C2A0208A52A020879E926315D
:104A600008AC8CBF00F088400000F03F081F7CF0CD
:104A7000C1079F3FBE2A0208D92A0208F42A020869
:104A80000F2B02080EB403B503AB04CB0B2102209D
:104A90000193FDF7C7F802B008BC03B0184770B522
:104AA0001A4D1B492B6804001A1A0B20FFF7EAFF66
:104AB00028790321013018F0D1F82B6829719C4224
:104AC00012D21B1BDA179B185340124A934209DD7E
:104AD0008021002209021048FFF7BAFA0F490B2083
:104AE000FFF7D0FF2C6070BD9C42FBD91B1BDA176F
:104AF0009B185340074A9342F4DD802101220902AA
:104B00000548FFF7A5FA0649E9E7C046F00E002080
:104B10009917020810270000000400502A2B0208F1
:104B2000322B02080EB403B503AB04CB0B210320D8
:104B30000193FDF777F802B008BC03B018470EB434
:104B400003B503AB04CB0B2101200193FDF76AF8F9
:104B500002B008BC03B01847F7B5070016003224AE
:104B60000191019A39005420FFF7ECFB051E0DD08E
:104B7000013CE4B2002CF4D1002E05D03B00320001
:104B800008490B20FFF7DBFF012508E0002E06D0C7
:104B9000019B32001B8804490B20FFF7C3FF28004C
:104BA000FEBDC0463B2B0208602B02080023F7B570
:104BB0000F001600322401900B803A000199542016
:104BC000FFF794FB051E0DD0013CE4B2002CF4D19C
:104BD000002E05D0019B320007490B20FFF7AFFFE5
:104BE000012507E0002E05D03B88320003490B2049
:104BF000FFF798FF2800FEBD752B0208992B0208CD
:104C000037B50D490B20FFF73DFF002201AD29000C
:104C10001000FFF7CBFF6B469C1D002221000120F6
:104C2000FFF7C4FF28882388000418430001000907
:104C3000FFF735FF37BDC046A42B020870B586B01C
:104C4000FFF75EFA002802D0012006B070BD0125F2
:104C50000390049001AA042141480295FFF775F8DA
:104C60000028F1D1802101AA09023D48FFF76DF823
:104C7000041EE9D12A0004213948FFF7E9F922008E
:104C800004213748FFF7E4F96420FBF705FB6B4686
:104C90009C1C344B344A21001C202380FFF75CFF0E
:104CA000061E56D16420FBF7F7FA304A21007F2018
:104CB000FFF77CFF2E4A21007E20FFF777FF2D4B68
:104CC0002D4A21001A202380FFF746FFA842BBD0BF
:104CD0002A4B2B4A21001B202380FFF73DFF012890
:104CE000B2D0284A210019202680FFF735FF01287D
:104CF000AAD0320024490B20FFF7C4FE0123234A27
:104D00005B42210008202380FFF726FF01289BD06B
:104D100080231F4ADB00210010202380FFF71CFFA7
:104D2000012800D190E71B4B1B4A2100142023804F
:104D3000FFF712FF012800D186E7184B184A21001F
:104D40001E202380FFF708FF013843425841C0B2BC
:104D50007BE70B201349FFF7F2FE280075E7C046FA
:104D6000000400500080FFFFA82B0208B12B0208AE
:104D7000B72B0208811C0000D02B02080D42000056
:104D8000BD2B0208CA2B0208DA2B0208E72B020807
:104D9000F12B020801200000002C02080088FFFF10
:104DA0000A2C0208152C020837B56B460B4D9C1DCA
:104DB0002A0021001A20FFF7F9FE01280DD08023D8
:104DC00022889B01134321002A001A202380FFF729
:104DD000C3FE013843425841C0B23EBDD02B020849
:104DE00037B56B460D4D9C1D2A0021001A20FFF798
:104DF000DDFE012801D101203EBD2388084A2100A3
:104E000013401A202A002380FFF7A6FE0128F2D0C3
:104E10006420FBF741FA0020EEE7C046D02B0208E1
:104E2000FFDFFFFFF7B56B462C4E04000D0032008C
:104E3000991D1820FFF7BAFE0700012827D06B46FE
:104E40009F1C3900264A0020FFF7B0FE01A9254A21
:104E50000120FFF7ABFE6A463B8892881B04134390
:104E60001B011A0F180922701A0D1B0B6270E070DB
:104E7000A3702B78002704332B70FFF710FE6B46CE
:104E80003200991D1820FFF791FE3800FEBDFFF794
:104E90008BFF3A0004211448FFF7DAF80020FFF7EF
:104EA000CDFE07000128CAD180250A242D02002248
:104EB00029000D48FFF7CCF8FA204000FBF7ECF989
:104EC000012229000848FFF7C3F8FA20013C4000FE
:104ED000E4B2FBF7E1F9002CE9D1D6E7262C020871
:104EE000302C0208342C02080004005010B5FFF7E3
:104EF00007F9431E9841C0B210BD10B5FFF75EF927
:104F000010BDF0B50025060085B001910D70AA20F6
:104F1000FBF7C2F9902303AC63702B000222603BC5
:104F2000210028202370FFF7B1F900283BD0284842
:104F3000FCF796FEC12323702378BF2B42D86778F5
:104F4000A278BF0092091743FE229B02520213402F
:104F50001F433A0029001F48FCF782FE380018F072
:104F6000D9FE1D4918F0FAFB17F064FFFA218900F9
:104F700017F004FD290002001848FCF771FE7F229B
:104F8000237813403370637801357370A378B3705E
:104F9000019B019A1B78033603331370052DB6D19C
:104FA000002005B0F0BDAA20FBF776F9032221000E
:104FB0002820FFF783F90028BED00948FCF750FEEF
:104FC000C223B8E729000748FCF74AFE2378D9E74F
:104FD000382C0208542C0208DD24F4407B2C0208F3
:104FE000462C0208A12C02080EB403B503AB04CB77
:104FF0000F2102200193FCF715FE02B008BC03B09C
:105000001847704710B50F200349FFF7EDFFFBF776
:10501000E7F8002010BDC046BF2C020800207047F2
:10502000704710B50F200349FFF7DEFFFBF7E0F8EC
:10503000002010BDE22C020894300208000000207D
:10504000DC080020E0080020D82500200EB403B5BD
:1050500003AB04CB0F2102200193FCF7E3FD02B068
:1050600008BC03B0184710B501000F20FFF7EEFF92
:1050700010BD0FB400B59BB01CAA02CA01A80092D3
:1050800013F07AFE01A90F20FFF7E0FF1BB008BC68
:1050900004B0184710B50A0001000F20FFF7D6FF33
:1050A00010BD00008022104B520019680A431A609C
:1050B000DA680E490A40DA601A680D490A4001218F
:1050C0001A609A688A439A601A680A490A401A6004
:1050D000DA6809490A40DA6000221A618022074B27
:1050E00012059A607047C046001002400C40FF88CD
:1050F000F6FFF6FEFFFFFBFFFFFF02FF00ED00E003
:105100000C2370B51B4C1C4DE0681C4E184017F06A
:1051100017FC2727272707272727122727271400C9
:10512000174B2B60E36809361B061B0F2A68F35CDC
:10513000DA402A6070BD134BF3E7E368E1689B0235
:105140000902E2681B0F890FF35C0131D20305D419
:105150000B48584317F012FC2860E3E70948F8E7CA
:105160008022636812021B045B0F01339A402A609D
:10517000D8E7C04600100240B00600203A060208F8
:105180000024F40000127A000520704701207047C7
:1051900070B50500092000F013FA06004D2000F05C
:1051A0000FFA7F2204000E203240EEB2B042B64128
:1051B0007142C90111437022114349B200292DDA0D
:1051C0000723112D19DD1C43E4B2E3435B0718D11B
:1051D0002A1C142D00DD142253B2052B00DA0522FF
:1051E0000F23053A99431143C9B2092000F095F9FC
:1051F00021004D2000F091F970BD9C432300042450
:10520000E1E72B1C112D00DD11235AB2022A00DA2E
:1052100002230F22023B91431943E5E7291C0E2D7F
:1052200000DD011C0B0601D5024B19784B1C7021C7
:10523000F2E7C046042D020830B587B014220021E1
:1052400001A812F029FC164800F014F9154B0225AC
:1052500002930323144C01AA102120000493039508
:10526000FEF7FEFD01AA29002000FEF7F9FD01AAC4
:1052700001212000FEF7F4FD802101AA89010B48DD
:10528000FEF7EEFD01238021A0200293002301AA56
:105290004901C0050393FEF7E3FD07B030BDC046EA
:1052A000B406002000001110000400500008005057
:1052B00030B5022587B0104C1422002101A812F04D
:1052C000EBFB0E4B01AA1021200002930395FEF781
:1052D000C7FD01AA29002000FEF7C2FD01AA012195
:1052E0002000FEF7BDFD802101AA89010448FEF7D8
:1052F000B7FD07B030BDC0460004005000001110DB
:105300000008005010B5142286B0002829D10100F1
:1053100001A812F0C1FB012302930233A02001AACD
:105320000221C0050493FEF79BFDA020002202216C
:10533000C005FEF78DFE01AA02210D48FEF790FD83
:10534000002202210A48FEF783FE01AA0421084830
:10535000FEF786FD002204210548FEF779FE06B01F
:1053600010BD002101A812F097FB03230293D5E79B
:105370000008005070B504000D4D0368002228009D
:105380001021FEF72FFE6368280000220221FEF79D
:1053900029FEA368280000220121FEF723FE8021B8
:1053A000E368002289010348FEF71CFE70BDC04679
:1053B000000400500008005010B50200012809D177
:1053C0008021A0204901C005FEF742FE0520FAF722
:1053D00063FF10BD8021A02000224901C005FEF717
:1053E00037FEF6E770B50500092000F0E9F80B4C30
:1053F000032D0AD101220221030600D4042108480A
:10540000FEF726FE0123237070BDA0200023012299
:105410000221C0052370FEF71BFEF5E7E423002000
:10542000000800500E23834280414042C001704773
:10543000002210B50749D3005C58844203D8CB182A
:105440009C68A04203D30132152AF4D1FEE71879F3
:1054500010BDC046D0060208054B5A79002A05D176
:1054600030331A78002A01D101321A707047C046D1
:10547000E4230020014B18607047C046F80E00205E
:10548000014B18797047C046E423002030B587B03F
:1054900001241422002101A812F0FEFA03230E4D6C
:1054A00001AA2100280004930294FEF7D9FC2100F0
:1054B00000222800FEF7CCFD2000FAF7EDFE0023C5
:1054C00001AA210028000293FEF7CAFC0620FAF781
:1054D000E3FE07B030BDC0460008005070B50600BE
:1054E0000C00A0208021150009020022C005FEF753
:1054F000AFFD8020304309F02BF86519AC4207D18D
:105500008021A02001220902C005FEF7A1FD70BD87
:10551000207809F01DF80134F0E707B56B46D97122
:10552000073301221900FFF7D9FF07BD114B70B5F2
:1055300011499860050017F0A7FA104B0802C0182F
:105540000D4917F01BFA0C490400280017F016FA51
:1055500000022418210CC9B20620FFF7DEFF210A41
:10556000C9B20720FFF7D9FFE1B20820FFF7D5FF46
:1055700070BDC046E4230020093D0000841E0000E9
:1055800070B506000C00A020802115000902002241
:10559000C005FEF75DFD7F20304008F0D9FF65199A
:1055A000AC4207D18021A02001220902C005FEF7EC
:1055B0004FFD70BD002008F0CBFF20700134EFE7F5
:1055C00013B56B46DC1D01222100FFF7D9FF2078BF
:1055D00016BD70B50920FFF7F3FF05000620FFF7A1
:1055E000EFFF04000720FFF7EBFF24040002044351
:1055F0000820FFF7E5FF1B4B2043C4B25C43000AC1
:1056000058438034240A002124180920FFF785FF1D
:105610003B20FFF7D5FF40210143C9B23B20FFF7F4
:105620007CFF20263B20FFF7CBFF3042FAD10E480B
:10563000FFF77CFF3B20FFF7C3FF40210143C9B2C6
:105640003B20FFF76AFF20263B20FFF7B9FF3042DF
:10565000FAD129000920FFF760FF2000FFF766FF5D
:1056600070BDC046093D000000A1BC33F0B50D007F
:1056700085B0002803D001285AD000204EE0714C9C
:105680002720268CFFF79CFFF823984301308019D0
:105690001AF0B4F80B00E11CC97F020000200029B9
:1056A0003ED1694918F07CFB060030200F00FFF75F
:1056B00087FFF923984335D10020002132003B00B9
:1056C00018F06EFB060028000F001AF097F8020091
:1056D0000B003000390018F063FB0B00611DC97F1F
:1056E00002000020002920D1002118F059FB0022DF
:1056F000564B19F099FA0600E0690F001AF0C0F84D
:1057000002000B003000390018F05AFE0022504B06
:1057100019F08AFA1AF002FC17F0A4FB05B0F0BDEC
:105720000021BFE700204849C8E78021C905DCE720
:10573000444C636C073B022B00D97DE0454ADB00FB
:10574000D3181E6B5F6B0120A36CED009840019392
:105750001AF054F802000B003000390018F030FE47
:1057600002000B000020384918F02AFE2300060032
:105770000F004E3318881AF041F80022364B18F00B
:105780000FFB32003B0019F04FFA23000290039107
:1057900052331878019B50349B000001C01A2378C3
:1057A0001422591E8B411C305B421A402818801A63
:1057B0001AF066F8234B04004C3318780D00431E92
:1057C0009841019B4000181A80001AF059F8020015
:1057D0000B002000290018F0F3FD1AF071FA040004
:1057E0000D00184B4D33187804301AF007F82200DA
:1057F0002B0019F019FA0022002304000D0017F005
:105800005DFA00281BD00022104B2000290018F060
:10581000C7FA32003B0019F007FA029A039B18F00E
:10582000BFFA00220A4B19F0FFF90C4A0C4B18F092
:10583000B7FA1AF0DBFA6FE70026002783E70020AB
:105840000249E6E7E42300200000F03F000020408A
:1058500000408F4050070208000011402B8716D9E6
:10586000CEF7EF3F10B5002804D001280AD0012060
:10587000404206E01120FFF7A3FE4008C0B24042BC
:1058800000B210BD064A074B92681B209A4203D90A
:10589000FFF796FE9D38F3E7FFF792FEA438EFE797
:1058A000E423002040DD4A1F10B504000120FFF76B
:1058B00087FE0723010099432143C9B20120FFF766
:1058C0002CFE054C012023681B69984723680020A3
:1058D0001B68984710BDC046F80E002010B506485A
:1058E000FBF77CF80548FBF779F80020FFF7DCFFB1
:1058F0000022034B1A7110BD4C240020B423002059
:10590000E423002070B5041E02D1FFF7CDFF70BD67
:105910000C4D01202B681B6898472B6800201B69E1
:1059200098472B6820005B6998470120FFF748FEE5
:105930000723010099432143C9B20120FFF7EDFD80
:10594000E5E7C046F80E002010B50648FBF746F81C
:105950000548FBF743F80120FFF7D4FF0022034B73
:105960001A7110BD4C240020B4230020E423002031
:10597000F8B57A4C06006579002D03D0012D50D082
:10598000002729E0E31D4020DF7FFFF719FE0321F8
:105990000840093101434020FFF7BFFD4120FFF7D8
:1059A0000FFE3F2149420143C9B24120FFF7B5FD37
:1059B0003520FFF705FE3F23184023003E331870C3
:1059C0001E210D20FFF7A9FD230030331D70230099
:1059D00031331D70A5876587802261485200002100
:1059E000043012F059F801232371002E07D05D4DC9
:1059F00031002800FBF726F82800FAF770FF6379DA
:105A0000002B00D0A2E00520FFF77CFF002F07D17C
:105A1000554DE16A2800FBF715F82800FAF75FFFFB
:105A2000F8BD230055331B7841273320002B23D0AA
:105A3000FFF7C6FD3843C1B23320FFF76EFD1921D1
:105A40003B20FFF76AFD636C3120082B6DD8FFF710
:105A5000B7FD7F2101403120FFF75FFD302000219D
:105A6000FFF75BFD606C08281AD816F069FF103646
:105A70003D444B5259595900FFF7A2FD0100B9436B
:105A80002943C9B23320FFF748FD1D21D8E748213B
:105A90002F20FFF742FDA368344A9818FFF746FD10
:105AA000230056331F78230053331B78002B44D038
:105AB0001D211120FFF731FD4020FFF781FD33212B
:105AC00001404020FFF729FD00210F20FFF725FDB1
:105AD00000210D20FFF721FD7EE744212F20FFF755
